:0300000002120BDE
:0C120B00787FE4F6D8FD75818402125251
:1013840030313233343536373839414243444546B7
:101394000000000000000000000000000000000049
:1013A4000000000000000000000000000000000039
:1013B4000000000000000000000000000000000029
:1013C40000010203040506070809000000000000EC
:0713D400000A0B0C0D0E0FC7
:0C162000013E00013400013600012C00E6
:10000E0075F1FF75A4FF75F2FF75A5FF75E101751A
:03001E00E240229B
:10153E0053D9BF75B280E4F5A975B283F5AB53AB41
:10154E00FC43AB80FF0FBFC8FC43ABC0E5AB30E53F
:0D155E00FB75FF8075EF0675A90243E240A2
:01156B00225D
:1014300012153E12000E7FFF120C76121591121635
:10144000121215E0D2AFE5172414F53DE47884F6C6
:101450007FFF12002EC293121500D286120EA51223
:10146000131F12156C1213DB1203F0E517B53DECD8
:0A147000E5172414F53DB28280E276
:020D9000AD07AD
:100D9200ED24FFFFE434FFFEEF7803CEC313CE133E
:100DA200D8F9FFEE7075EF146021146032146043BD
:100DB20014605424047064ED145407FF7480A8076F
:100DC200088002C313D8FC4231805BED145407FF44
:100DD2007480A807088002C313D8FC420D8047ED37
:100DE200145407FF7480A807088002C313D8FC427A
:100DF2001B8033ED145407FF7480A807088002C3D8
:100E020013D8FC421A801FED145407FF7480A80700
:100E1200088002C313D8FC4218800BE4F531F50DAB
:100E2200F51BF51AF518E4FFE518A807088002C3B8
:100E320013D8FC139292C290D2900FBF08EAE4FF3B
:100E4200E51AA807088002C313D8FC139292C29035
:100E5200D2900FBF08EAE4FFE51BA807088002C38F
:100E620013D8FC139292C290D2900FBF08EAE4FF0B
:100E7200E50DA807088002C313D8FC139292C29012
:100E8200D2900FBF08EAE4FFE531A807088002C349
:100E920013D8FC139292C290D2900FBF08EAC2916B
:020EA200D291EB
:010EA400222B
:020C7600AD07C8
:100C7800ED24FFFFE434FFFEEF7803CEC313CE1359
:100C8800D8F9FFEE707AEF146022146034146046CD
:100C980014605824047069ED145407FF7480A80781
:100CA800088002C313D8FCF45231805FED14540756
:100CB800FF7480A807088002C313D8FCF4520D8083
:100CC8004AED145407FF7480A807088002C313D89C
:100CD800FCF4521B8035ED145407FF7480A80708F4
:100CE8008002C313D8FCF4521A8020ED145407FF75
:100CF8007480A807088002C313D8FCF45218800B2C
:100D0800E4F531F50DF51BF51AF518E4FFE518A81B
:100D180007088002C313D8FC139292C290D2900F96
:100D2800BF08EAE4FFE51AA807088002C313D8FC45
:100D3800139292C290D2900FBF08EAE4FFE51BA875
:100D480007088002C313D8FC139292C290D2900F66
:100D5800BF08EAE4FFE50DA807088002C313D8FC22
:100D6800139292C290D2900FBF08EAE4FFE531A82F
:100D780007088002C313D8FC139292C290D2900F36
:070D8800BF08EAC291D291FD
:010D8F002241
:10131F00787DE6C39401405CE6D394285056E4FFF1
:10132F0074082FF8E6FDEF2DFDE433FCEFC39DECC1
:10133F006480F87480985009EFC3940550030F80B0
:10134F00DFEFD39404501E787DE6FE74082FF8A6C5
:10135F0006E5172414FE74382FF8A606787DE6FFED
:10136F00120D90800B787DE6B4FF097FFF120C768B
:04137F00E4787DF69B
:011383002247
:10156C00E4FC74082CF8E6601774382CF8E6B51710
:10157C000F74082CF8E6FF120C7674082CF8E4F6BD
:04158C000CBC05DEB0
:011590002238
:101591005389F0438901758E00438E02758A577510
:0B15A1008C9EC28DD28CD2A9D2AF224A
:03000B0002162DAD
:09162D00758C9E758A5705173271
:0E16120053C8FE75CBE875CA8FD2ADD2AF2299
:03002B0002147A42
:10147A00C0E0C0D075D000C000C2CF0519786DE6B3
:10148A0070107872E6700BE5367007C2CA7884F677
:10149A00801D7882E6B519177859E66008E51904BF
:1014AA007882F6800A78837601751900187696D0C4
:0614BA0000D0D0D0E032AA
:1013DB00787EE66018787EE6B4FF077FFF12002E5A
:1013EB008007787EE6FF120796E4787EF6E4787F36
:1013FB00F6FF74492FF9787FE647F60FBF10F378A5
:10140B007FE6602008E6B5171BE5172414F608E6FF
:10141B007FF1B40108120796E47881F62212002EB0
:04142B00788176014D
:01142F00229A
:02079600AD07AD
:10079800ED24FFFFE434FFFEEF7803CEC313CE133E
:1007A800D8F9FFEE6003020991EF24E27003020911
:1007B8004E1470030209B2241FB41000400302094A
:1007C800919007D0F828287302080002081502083B
:1007D8002A02083F02085402086902087E020893A8
:1007E8000208A80208BD0208D20208E70208FC02B3
:1007F800091102092602093AED145407FF7480A86A
:1008080007088002C313D8FC42370209B2ED14541A
:1008180007FF7480A807088002C313D8FC4213029C
:1008280009B2ED145407FF7480A807088002C313A7
:10083800D8FC42200209B2ED145407FF7480A807BF
:10084800088002C313D8FC421F0209B2ED145407F2
:10085800FF7480A807088002C313D8FC421D020950
:10086800B2ED145407FF7480A807088002C313D898
:10087800FC42210209B2ED145407FF7480A807084E
:100888008002C313D8FC422F0209B2ED145407FFAB
:100898007480A807088002C313D8FC422D0209B24D
:1008A800ED145407FF7480A807088002C313D8FC0E
:1008B800422B0209B2ED145407FF7480A807088080
:1008C80002C313D8FC42220209B2ED145407FF7484
:1008D80080A807088002C313D8FC42300209B2ED91
:1008E800145407FF7480A807088002C313D8FC4279
:1008F800330209B2ED145407FF7480A80708800278
:10090800C313D8FC423F0209B2ED145407FF7480A8
:10091800A807088002C313D8FC42150209B2ED14D7
:100928005407FF7480A807088002C313D8FC421438
:100938008078ED145407FF7480A807088002C31359
:10094800D8FC421680647849E6423708E642130824
:10095800E6422008E6421F08E6421D08E642210852
:10096800E6422F08E6422D08E6422B08E642220816
:10097800E6423008E6423308E6423F08E6421508F8
:10098800E6421408E642168021E4F537F513F5200F
:10099800F51FF51DF521F52FF52DF52BF522F53071
:1009A800F533F53FF515F514F516E4FFE516A80738
:1009B800088002C313D8FC139296C294D2940FBF36
:1009C80008EAE4FFE514A807088002C313D8FC135B
:1009D8009296C294D2940FBF08EAE4FFE515A807DF
:1009E800088002C313D8FC139296C294D2940FBF06
:1009F80008EAE4FFE53FA807088002C313D8FC1300
:100A08009296C294D2940FBF08EAE4FFE533A80790
:100A1800088002C313D8FC139296C294D2940FBFD5
:100A280008EAE4FFE530A807088002C313D8FC13DE
:100A38009296C294D2940FBF08EAE4FFE522A80771
:100A4800088002C313D8FC139296C294D2940FBFA5
:100A580008EAE4FFE52BA807088002C313D8FC13B3
:100A68009296C294D2940FBF08EAE4FFE52DA80736
:100A7800088002C313D8FC139296C294D2940FBF75
:100A880008EAE4FFE52FA807088002C313D8FC137F
:100A98009296C294D2940FBF08EAE4FFE521A80712
:100AA800088002C313D8FC139296C294D2940FBF45
:100AB80008EAE4FFE51DA807088002C313D8FC1361
:100AC8009296C294D2940FBF08EAE4FFE51FA807E4
:100AD800088002C313D8FC139296C294D2940FBF15
:100AE80008EAE4FFE520A807088002C313D8FC132E
:100AF8009296C294D2940FBF08EAE4FFE513A807C0
:100B0800088002C313D8FC139296C294D2940FBFE4
:100B180008EAE4FFE537A807088002C313D8FC13E6
:0E0B28009296C294D2940FBF08EAC295D2955D
:010B3600229C
:02002E00AC071D
:10003000EC24FFFFE434FFFEEF7803CEC313CE13AE
:10004000D8F9FFEE6003020241EF24E270030201DF
:10005000EE241EB410004003020241900062F82812
:1000600028730200920200A80200BE0200D402001F
:10007000EA02010002011602012C020142020158AB
:1000800002016E02018402019A0201B00201C6025D
:1000900001DCEC145407FF7480A807088002C31326
:1000A000D8FCF4523702026BEC145407FF7480A89A
:1000B00007088002C313D8FCF4521302026BEC143D
:1000C0005407FF7480A807088002C313D8FCF452B9
:1000D0002002026BEC145407FF7480A8070880020A
:1000E000C313D8FCF4521F02026BEC145407FF74C4
:1000F00080A807088002C313D8FCF4521D02026BCB
:10010000EC145407FF7480A807088002C313D8FCBE
:10011000F4522102026BEC145407FF7480A8070804
:100120008002C313D8FCF4522F02026BEC14540764
:10013000FF7480A807088002C313D8FCF4522D0274
:10014000026BEC145407FF7480A807088002C313E5
:10015000D8FCF4522B02026BEC145407FF7480A8F5
:1001600007088002C313D8FCF4522202026BEC147D
:100170005407FF7480A807088002C313D8FCF45208
:100180003002026BEC145407FF7480A80708800249
:10019000C313D8FCF4523302026BEC145407FF74FF
:1001A00080A807088002C313D8FCF4523F02026BF8
:1001B000EC145407FF7480A807088002C313D8FC0E
:1001C000F4521502026BEC145407FF7480A8070860
:1001D0008002C313D8FCF4521402026BEC145407CF
:1001E000FF7480A807088002C313D8FC804E7849AA
:1001F000E6F4523708E6F4521308E6F4522008E613
:10020000F4521F08E6F4521D08E6F4522108E6F401
:10021000522F08E6F4522D08E6F4522B08E6F45269
:100220002208E6F4523008E6F4523308E6F4523F6E
:1002300008E6F4521508E6F4521408E6F452168063
:100240002AE4F537F513F520F51FF51DF521F52FF7
:10025000F52DF52BF522F530F533F53FF515F514B1
:10026000F5167D107849E4F608DDFCE4FDE516A8F6
:1002700005088002C313D8FC139296C294D2940D41
:10028000BD08EAE4FDE514A805088002C313D8FC04
:10029000139296C294D2940DBD08EAE4FDE515A828
:1002A00005088002C313D8FC139296C294D2940D11
:1002B000BD08EAE4FDE53FA805088002C313D8FCA9
:1002C000139296C294D2940DBD08EAE4FDE533A8DA
:1002D00005088002C313D8FC139296C294D2940DE1
:1002E000BD08EAE4FDE530A805088002C313D8FC88
:1002F000139296C294D2940DBD08EAE4FDE522A8BB
:1003000005088002C313D8FC139296C294D2940DB0
:10031000BD08EAE4FDE52BA805088002C313D8FC5C
:10032000139296C294D2940DBD08EAE4FDE52DA87F
:1003300005088002C313D8FC139296C294D2940D80
:10034000BD08EAE4FDE52FA805088002C313D8FC28
:10035000139296C294D2940DBD08EAE4FDE521A85B
:1003600005088002C313D8FC139296C294D2940D50
:10037000BD08EAE4FDE51DA805088002C313D8FC0A
:10038000139296C294D2940DBD08EAE4FDE51FA82D
:1003900005088002C313D8FC139296C294D2940D20
:1003A000BD08EAE4FDE520A805088002C313D8FCD7
:1003B000139296C294D2940DBD08EAE4FDE513A809
:1003C00005088002C313D8FC139296C294D2940DF0
:1003D000BD08EAE4FDE537A805088002C313D8FC90
:0F03E000139296C294D2940DBD08EAC295D2959D
:0103EF0022EB
:07000300AE071FEE70FA22A8
:0614C000AB41AA42A94362
:0614C6008B468A478948AD
:1014CC00E4FFAE051DEE6015AB460548E548AA479E
:1014DC007002054714F91215F92FFF80E5EFF4049B
:1014EC00FF540F90138493FD5307F0EFC4540F93E4
:0314FC00FEEDFF03
:0114FF0022CA
:101297007B007A00795A7877E624FCFD1214C6ADF4
:1012A70007AC06E62456F8E6FE7877E62457F8E614
:1012B700FBEB6D7002EE6C7046785CE690139493CE
:1012C700C454F0FF08E6934F787DF6E4FCFDAF05C4
:1012D70074592DF8E6FFAE0574632DF8A6070DBD0A
:1012E70000010CED64094C70E5C2867877E608F6D4
:1012F7000876000876000876647863E6F59922E4B4
:10130700FCFDAF0574592DF8E4F60DBD00010CED99
:07131700640A4C70EDD28660
:01131E0022AC
:100B37007B007A00795A7877E624FCFD1214C68E7A
:100B4700418F42E62456F8E6FE7877E62457F8E622
:100B5700FDED65427003EE65416003020C59785C58
:100B6700E690139493C454F0FF08E6934F787EF60B
:100B7700785EE693787FF6E66401703618E624FF20
:100B8700FFE434FFFEEF7803CEC313CE13D8F92466
:100B970049F9787EE6145407FF7480A80708800295
:100BA700C313D8FC47F7E51724147880F6E408F652
:100BB7008069787FE6702D18E624FFFFE434FFFE96
:100BC700EF7803CEC313CE13D8F92449F9787EE61C
:100BD700145407FF7480A807088002C313D8FCF4D5
:100BE70057F78037787EE6FF12002E787EE624FFDF
:100BF700FFE434FFFEEF7803CEC313CE13D8F924F6
:100C070049F9787EE6145407FF7480A80708800224
:100C1700C313D8FCF457F7E4787EF6E4F541F542C0
:100C2700AF4274592FF8E6FE74632FF8A606054203
:100C3700E54270020541640A454170E4C28678774F
:100C4700E608F60876000876000876647863E6F525
:100C57009922E4F541F54274592542F8E4F6054234
:0E0C6700E54270020541640A454170EBD286F9
:010C7500225C
:1010BA0075430075440075455AAB43AA44A945785F
:1010CA0077E624FCFD1214C68E418F42E62456F8B8
:1010DA00E6FE7877E62457F8E6FDED65427003EE02
:1010EA0065417060C2867877E608F6087600087669
:1010FA00000876647863E6F59976400876560876AD
:10110A0031087631087635754300754400754564B3
:10111A00AB43AA44A9457D041214C68E418F42EE00
:10112A0008F6E54208F608760D087609E47883F6AB
:10113A00C2867878760808F60876000876647863B6
:10114A00E6F59922E4F541F54274592542F8E4F6A8
:10115A000542E54270020541640A454170EBD286B8
:01116A002262
:1015AC00E4FF74632FF974592FF8E6676004E4FFC5
:0915BC0080070FEFC3940A40E917
:0115C5002203
:1015C600E4FF74632FF974592FF8E6676004E4FFAB
:0915D60080070FEFC3940940E9FE
:0115DF0022E9
:100FB000786DE6606C7883E664017065E53E6403F5
:100FC000605F053E78637640087653087631786D29
:100FD000E65470FFC4540F901384937866F6786DCE
:100FE000E6540F937867F6786DE6786830E7047614
:100FF00031800276307541007542007543647D058D
:101000001214C08E448F45EE7869F6E54508F6085F
:10101000760D087609E47883F6C2867878760980BA
:10102000607872E660697883E664017062E53E6428
:1010300003605C053E786376400876540876317824
:1010400072E654F0FFC4540F901384937866F678D8
:1010500072E6540F937867F6754100754200754348
:10106000647D041214C08E448F45EE08F6E54508F1
:10107000F608760D087609E47883F6C286787876E5
:101080000808F60876000876647863E6F59922E5A4
:101090003E6403701C7883E6B40116E4F6C2CA0805
:1010A000F6F53EFF74592FF8E4F60FBF0AF6D28624
:0910B00022C2CAE47883F608F6B6
:0110B9002214
:100EA500787CE67003020F88785BE6901394936470
:100EB500016003020F7018E624BE601824EF60205D
:100EC50014605924FE601324156003020F5B12128F
:100ED50097020F83120B37020F831210BA020F838A
:100EE5001215ACEF6023E4F53EF536C2CA7884F6F8
:100EF500D286786EE618F6786FE618F67870E618FA
:100F0500F67871E618F6E408F6E4F54074592540DC
:100F1500F8E4F60540E540B40AF280621215C6EF22
:100F25006021E4F53E7884F6C2CAD2867873E61865
:100F3500F67874E618F67875E618F67876E618F613
:100F4500E408F6E4F54074592540F8E4F60540E573
:100F550040B40AF28028E4F54074592540F8E4F6D7
:100F65000540E540B40AF2D2868013E4F540745991
:100F75002540F8E4F60540E540B40AF2D286E47867
:100F85007CF622786DE670097872E67004E53660C5
:100F9500107884E6700B7601F51978827601D2CA4D
:0A0FA500227883E6B40103120FB0B6
:010FAF00221F
:0300230002116B5C
:10116B00C0E0C083C082C0D075D000C000C001C039
:05117B0002C003C007E3
:10118000309846C298AF99EF24F7600E24C97028B2
:101190007859A60778777601802F7877E62458F873
:1011A000E67877B40D0EE62459F8A607787C760128
:1011B000C2868015760080117877E62459F8A60754
:1011C000787706E6B40A02760030992CC2997878CE
:1011D000E6601716088603080806E61886027001FE
:1011E0000614F91215F9F599800E7F0074592FF83D
:0811F00076000FBF0AF6D2865B
:1011F800D007D003D002D001D000D0D0D082D08385
:03120800D0E03201
:1015E000759810758DCB758BCB53890F438920D29D
:0915F0008E43B810D2ACD2AF2238
:1003F000E51C60030204E0C2807F05120003D28086
:100400007F05120003A2A1B35009751C01E5172452
:1004100004F51E75407FC2817F05120003D2817FE3
:1004200005120003A2A1B35009751C01E5172404AD
:10043000F51E1540E540D3940050DBC2837F0512C2
:100440000003D2837F05120003E512F45401FFA2DA
:10045000A0E4336F6009751C01E5172450F51E7583
:100460004027C2877F05120003D2877F0512000351
:10047000E5405407FD7024E54024FFFFE434FFFE0F
:10048000EF7803CEC313CE13D8F9240EF8E6F45454
:1004900001FFA2A0E4336F603D8032E54024FFFFFE
:1004A000E434FFFEEF7803CEC313CE13D8F9240E45
:1004B000F8E6F4FFC374089DFEEFA806088002C3A7
:1004C00013D8FC5401FFA2A0E4336F6009751C012E
:1004D000E5172450F51E1540E540D39400508322C3
:1004E000E51E65176003020795F51CC2807F0512A3
:1004F0000003D2807F05120003A2A1B35035E4F5BA
:100500004074722540F8E62540FFE433FEC3E54021
:100510009FEE6480F8748098500BE540C3940550BA
:1005200004054080DCE540C3940550077472254003
:10053000F8768075407FC2817F05120003D2817FEB
:1005400005120003A2A1B35035E4F54174722541B0
:10055000F8E62541FFE433FEC3E5419FEE6480F8F1
:10056000748098500BE541C394055004054180DC2C
:10057000E541C39405501074722541F8A64015401A
:10058000E540D3940050AFC2837F05120003D283AD
:100590007F05120003E512F45401FFA2A0E4336FBB
:1005A0006042E4F540746D2540F8E62540FFE433F1
:1005B000FEC3E5409FEE6480F8748098500BE540E0
:1005C000C394055004054080DCE540C394055014F5
:1005D000746D2540F830A00776285312FE8005760A
:1005E000A8431201754027C2877F05120003D287F6
:1005F0007F05120003E5405407FD60030206A7E5EE
:100600004024FFFFE434FFFEEF7803CEC313CE1384
:10061000D8F9240EF8E6F45401FFA2A0E4336F7079
:1006200003020789E4F541746D2541F8E6FFE541D1
:100630002FFFE433FEE541C39FEE6480F874809899
:10064000500BE541C394055004054180DAE541C3F0
:100650009405400302079530A024746D2541F8A647
:1006600040E54024FFFFE434FFFEEF7803CEC313E0
:10067000CE13D8F9240EF8E654FEF6020789E540B9
:100680004480FF746D2541F8A607E54024FFFFE490
:1006900034FFFEEF7803CEC313CE13D8F9240EF83F
:1006A000E64401F6020789E54024FFFFE434FFFE3B
:1006B000EF7803CEC313CE13D8F9240EF8E6F4FF77
:1006C000C374089DFEEFA806088002C313D8FC542B
:1006D00001FFA2A0E4336F7003020789E4F54174BF
:1006E0006D2541F8E62541FFE433FEC3E5419FEE69
:1006F0006480F8748098500BE541C394055004055C
:100700004180DCE541C39405400302079530A03ADF
:10071000746D2541F8A640E54024FFFFE434FFFE58
:10072000EF7803CEC313CE13D8F9240EF8C000E639
:10073000FFE5405407FEC374089EFE7401A8060836
:100740008002C333D8FCF45F803CE5404480FF74F2
:100750006D2541F8A607E54024FFFFE434FFFEEFD6
:100760007803CEC313CE13D8F9240EF8C000E6FFE9
:10077000E5405407FEC374089EFE7401A806088075
:1007800002C333D8FC4FD000F61540E540D39400A7
:0507900040030205E733
:010795002241
:10150000E4786DF608F608F608F608F608F608F628
:1015100008F608F608F67F107849E4F608DFFCE4E0
:10152000F50EF50FF510F511F5127F087823E4F6A6
:0D15300008DFFCE47882F6F51908F6F51CDA
:01153D00228B
:10121700021430E493A3F8E493A34003F68001F2A9
:1012270008DFF48029E493A3F85407240CC8C333D8
:10123700C4540F4420C8834004F456800146F6DFA7
:10124700E4800B0102040810204080901620E47E01
:10125700019360BCA3FF543F30E509541FFEE4939C
:10126700A360010ECF54C025E060A840B8E493A363
:10127700FAE493A3F8E493A3C8C582C8CAC583CA8E
:10128700F0A3C8C582C8CAC583CADFE9DEE780BE46
:01162C0000BD
:1015F900BB010689828A83E0225002E722BBFE02F0
:09160900E32289828A83E4932222
:00000001FF
